:1000000009C019C018C017C016C015C014C013C04D
:1000100012C011C011241FBECFE9CDBF10E0A0E671
:10002000B0E0EAE1F3E002C005900D92A436B1071A
:10003000D9F734D070C1E4CF83B7836083BF8FB565
:1000400083608FBD8FB580628FBD0895EF92FF9260
:100050000F931F93CF93DF938C019B01281B390BC8
:100060002F5F3F4F8FEF9FE7B9013CD0862F972F2F
:10007000E62EF72EB90125D0EC0188D08C179D070C
:10008000E0F76E2D7F2D2ED0CB01800F911FDF91D9
:10009000CF911F910F91FF90EF900895B99ACCDF07
:1000A0006EEF70E082E390E0D1DF992789BD2FEFFA
:1000B0008DEE92E0215080409040E1F700C00000BA
:1000C000EFCF0024552704C0080E591F880F991F31
:1000D000009729F076956795B8F37105B9F7802DEB
:1000E000952F0895AA1BBB1B51E107C0AA1FBB1F78
:1000F000A617B70710F0A61BB70B881F991F5A95B4
:10010000A9F780959095BC01CD010895A0E0B0E0DD
:10011000EBE8F0E089C0EC01688179818A819B81FC
:10012000611571058105910521F464E279ED8BE596
:1001300097E02DE133EF41E050E037D049015A011B
:1001400027EA31E440E050E04CD069017A01C50172
:10015000B4012CEE34EF4FEF5FEF43D089019A01E9
:10016000D701C601800F911FA21FB31FB7FF03C0A5
:100170000197A109B04888839983AA83BB839F779D
:10018000CDB7DEB7ECE067C0C1DF089580E690E050
:10019000BDDF0895A0E0B0E080936000909361001F
:1001A000A0936200B09363000895052E97FB16F4A8
:1001B00000940FD057FD05D05ED007FC02D046F466
:1001C00008C050954095309521953F4F4F4F5F4F58
:1001D000089590958095709561957F4F8F4F9F4FB3
:1001E000089568940013E894A0E0B0E0E9EFF0E02F
:1001F0001DC0EFEFE7F959016A015E23550FEE08C4
:10020000FE2C87019B01AC019E23990F660B762F74
:10021000CB0153D0CDB7DD27EAE01FC02F923F922C
:100220004F925F926F927F928F929F92AF92BF9206
:10023000CF92DF92EF92FF920F931F93CF93DF93B2
:10024000CDB7CA1BCDBFDD2709942A8839884888D5
:100250005F846E847D848C849B84AA84B984C884E2
:10026000DF80EE80FD800C811B81AA81D981CE0FB9
:10027000CDBFCA2F0895A1E21A2EAA1BBB1BFD01F8
:100280000DC0AA1FBB1FEE1FFF1FA217B307E40775
:10029000F50720F0A21BB30BE40BF50B661F771FCD
:1002A000881F991F1A9469F76095709580959095AD
:1002B0009B01AC01BD01CF010895DF93CF939F92C5
:1002C000A0E49A2E0024D001E001F00116950795D4
:1002D000F794E794D794C794B794A79448F4106818
:1002E000A20FB31FC41FD51FE61FF71F081E191E3C
:1002F000220F331F441F551F661F771F881F991F2A
:100300009A9421F79D01AE01BF01C00111249F9075
:0A031000CF91DF910895F894FFCF1C
:04031A0001000000DE
:00000001FF
