S01700004C756372617265315F4C65647572692E737265634A
S11300000C9456000C9460000C9460000C946000F6
S11300100C9460000C9460000C9460000C946000DC
S11300200C9460000C9460000C9460000C946000CC
S11300300C9460000C9460000C9460000C946000BC
S11300400C9460000C9460000C9460000C946000AC
S11300500C9460000C9460000C9460000C9460009C
S11300600C9460000C9460000C9460000C9460008C
S11300700C9460000C9460000C9460000C9460007C
S11300800C9460000C9460000C9460000C9460006C
S11300900C9460000C9460000C9460000C9460005C
S11300A00C9460000C9460000C94600011241FBE3A
S11300B0CFEFDAE0DEBFCDBF0E949E000C94A30018
S11300C00C94000084B1806F84B987B1806C87B9C7
S11300D0879A089588E085B984E095B1990F95B918
S11300E02FEF39E698E1215030409040E1F700C00D
S11300F00000815091F715B8469A2FEF39E688E150
S1130100215030408040E1F700C000004698479AF3
S11301109FEF29E638E1915020403040E1F700C0DC
S1130120000047988F9A8FEF99E628E1815090401C
S11301302040E1F700C000008F9808950E946200FB
S10D01400E946A00FDCFF894FFCF7F
S9030000FC
