:100000000C9456000C9473000C9473000C947300C1
:100010000C9473000C9473000C9473000C94730094
:100020000C9473000C9473000C9473000C94730084
:100030000C9473000C9473000C9473000C94730074
:100040000C9473000C9473000C9473000C94730064
:100050000C9473000C9473000C9473000C94730054
:100060000C9473000C9473000C9473000C94730044
:100070000C9473000C9473000C9473000C94730034
:100080000C9473000C9473000C9473000C94730024
:100090000C9473000C9473000C9473000C94730014
:1000A0000C9473000C9473000C94730011241FBE05
:1000B000CFEFDAE0DEBFCDBF11E0A0E0B1E0E6EDCA
:1000C000F1E002C005900D92A032B107D9F721E00E
:1000D000A0E2B1E001C01D92A032B207E1F70E9498
:1000E00075000C94E9000C940000F8940E94CB0079
:1000F0000E947C007894FFCF84B1806984B93F9AD4
:10010000879A84B1806684B9E0E8F0E08081806AF3
:100110008083808182608083E1E8F0E08081886173
:1001200080838081816080838FEF90E0909387004F
:100130008093860080E091E00E94A9000E94DC008C
:100140000895E8ECF0E0908195FFFDCF8093CE001C
:100150000895EF92FF920F931F93CF93DF938C013B
:100160007C01C0E0D0E006C0F70181917F010E94D0
:10017000A1002196F80101900020E9F73197E01BDA
:10018000F10BCE17DF0780F3DF91CF911F910F9115
:10019000FF90EF9008951092CD0080E18093CC0005
:1001A000E8ECF0E080818260808388E18093C90080
:1001B00086E08093CA0008958091C800882344F4A3
:1001C000AEECB0E0E8ECF0E08C9180818823E4F3C1
:0601D0000895F894FFCF32
:1001D60050574D20696E697469616C697A617469FA
:1001E6006F6E2066696E6973686564210D0A00008A
:00000001FF
