:100000000C9456000C9473000C9473000C947300C1
:100010000C9473000C9473000C9473000C94730094
:100020000C9473000C9473000C9473000C94730084
:100030000C9473000C9473000C9473000C94730074
:100040000C9473000C9473000C9473000C94730064
:100050000C9473000C9473000C9473000C94730054
:100060000C9473000C9473000C9473000C94730044
:100070000C9473000C9473000C9473000C94730034
:100080000C9473000C9473000C9473000C94730024
:100090000C9473000C9473000C9473000C94730014
:1000A0000C9473000C9473000C94730011241FBE05
:1000B000CFEFDAE0DEBFCDBF11E0A0E0B1E0E2EDCE
:1000C000F1E002C005900D92AA33B107D9F721E003
:1000D000AAE3B1E001C01D92AA33B207E1F70E9482
:1000E00075000C94E7000C940000F8940E94D60070
:1000F0000E948900789480E091E00E94B4002FEF84
:1001000087EA91E6215080409040E1F700C000006E
:10011000F2CF84B1806984B93F9A879A84B18066AE
:1001200084B9E0E8F0E08081806A80838081826029
:100130008083E1E8F0E08081886180838081816054
:1001400080838FEF90E090938700809386008BE10F
:1001500091E00E94B4000895E8ECF0E0908195FFF2
:10016000FDCF8093CE000895EF92FF920F931F93DF
:10017000CF93DF938C017C01C0E0D0E006C0F70193
:1001800081917F010E94AC002196F801019000202E
:10019000E9F73197E01BF10BCE17DF0780F3DF9112
:1001A000CF911F910F91FF90EF9008951092CD0085
:1001B00080E18093CC00E8ECF0E080818260808375
:1001C00088E18093C90086E08093CA000895F8947E
:0201D000FFCF5F
:1001D200506572696F646963616C206465203220C6
:1001E200736563756E6465210D0A0050574D206971
:1001F2006E697469616C697A6174696F6E2066698F
:0A0202006E6973686564210D0A003F
:00000001FF
