S00B00005053312E7372656345
S11300000C9434000C9451000C9451000C94510045
S11300100C94A0000C9451000C9451000C945100C9
S11300200C9451000C9451000C9451000C946100F8
S11300300C9451000C9451000C9470000C945100D9
S11300400C9451000C9451000C9451000C945100E8
S11300500C9451000C9451000C9451000C945100D8
S11300600C9451000C94510011241FBECFEFD8E022
S1130070DEBFCDBF11E0A0E0B1E0EAE0F3E002C0F2
S113008005900D92AA30B107D9F721E0AAE0B1E0BA
S113009001C01D92AC30B207E1F70E9453000C94EA
S11300A083010C9400000E9402010E9439010E9405
S11300B00F0184E294EF0E9416018FEF0E942A013F
S11300C0FFCF1F920F920FB60F9211248F938BB113
S11300D080588BB98F910F900FBE0F901F90189579
S11300E01F920F920FB60F9211242F933F934F93A9
S11300F05F936F937F938F939F93AF93BF93EF938C
S1130100FF9380910A018F5F80930A0180910A0115
S1130110843628F085E00E94760110920A01FF914E
S1130120EF91BF91AF919F918F917F916F915F916B
S11301304F913F912F910F900FBE0F901F901895E4
S11301401F920F920FB60F9211242F933F934F9348
S11301505F936F937F938F939F93AF93BF93EF932B
S1130160FF932FEF87EE93E0215080409040E1F71A
S113017000C00000309B26C080E090E00E94FB009D
S113018080930B0180910B018A3080F480910B01E4
S11301908F5F80930B0160910B0180E090E00E94DF
S11301A0F30080910B010E944F010CC010920B01CF
S11301B060910B0180E090E00E94F30080910B01BC
S11301C00E944F01FF91EF91BF91AF919F918F9149
S11301D07F916F915F914F913F912F910F900FBE3F
S11301E00F901F901895F999FECF92BD81BD60BD07
S11301F0FA9AF99A0895F999FECF92BD81BDF89AB9
S113020080B5089584B18F6384B98AB1806C8AB94A
S113021080E090E00E94FB000E944F0108958AB1A3
S11302208C628AB98BB18C628BB90895F894E1E839
S1130230F0E0208128602083208124602083909333
S1130240890080938800EFE6F0E0808182608083FB
S113025078940895F89494B5926094BD95B595609A
S113026095BD87BDEEE6F0E080818260808378945E
S11302700895F894389A4098E8E6F0E08081826026
S11302808083ECE6F0E08081816080837894089537
S113029085B1807C85B98BB18F738BB90895CF9369
S11302A0C82F0E944801CA30A8F481E0C73009F47D
S11302B080E0882331F081E0C23008F480E08111CD
S11302C05E9A95B1EC2FF0E0E050FF4F8081892BCE
S11302D085B90AC085B18F6385B910920B0160E0BE
S11302E080E090E00E94F300CF9108954BB121E0AB
S11302F030E0B90102C0660F771F8A95E2F7CB019F
S10D030084278BB90895F894FFCF09
S10D030A3F061B0F262D3D073F2F71
S9030000FC
