S00B00005053312E7372656345
S113000033C000004CC000004AC0000048C00000DB
S11300102CC2000044C0000042C0000040C00000E8
S11300203EC000003CC000003AC00000E8C100002F
S113003036C0000034C000000EC2000030C0000012
S11300402EC000002CC00000BDC1000028C000006C
S113005026C0000024C0000022C0000020C0000010
S11300601EC000001CC0000011241FBECFEFD8E04A
S1130070DEBFCDBF11E0A0E0B1E0EEE8FEE002C0DB
S113008005900D92A032B107D9F721E0A0E2B1E0CA
S113009001C01D92A038B207E1F702D0F6C6B0CF76
S11300A079D423D155D12CD162D172D130D13AD166
S11300B0FFCF813049F4ECE7F0E080818D7F8083CD
S11300C080818160808307C0833029F4ECE7F0E00D
S11300D0808183608083EAE7F0E0808180648083AC
S11300E0808186FDFDCF809178002091790090E099
S11300F0922B0895BC0180E090E09FD523E23BED74
S113010049EF5EE350C60895BC0180E090E095D5C8
S113011021EE3AE744E15EE346C60895CF92DF92CA
S1130120EF92FF920F931F93CF93DF9320E030E081
S113013048EC52E438D655D580E090E07ED523E2F1
S11301403BED49EF5EE32FD64CD56B017C019B015F
S1130150ADECBCEC8BD69695879596958795969540
S113016087959C01220F331F880F991F880F991FB1
S1130170880F991F820F931FE601C81BD90B9601A4
S113018075D6AC015695479556954795569547951E
S11301909A016CD6969587959695879596958795A9
S11301A09C01220F331F880F991F880F991F880FF6
S11301B0991F820F931F8A01081B190B9A0156D6A7
S11301C0AC015695479556954795569547959A018E
S11301D04DD69695879596958795969587959C0186
S11301E0220F331F880F991F880F991F880F991F9B
S11301F0820F931F7A01E81AF90A9A0137D6AC01E3
S11302005695479556954795569547959A012ED6F6
S11302109695879596958795969587959C01220F37
S1130220331F880F991F880F991F880F991F820FFA
S1130230931F6A01C81AD90A9A0118D6AC015695B7
S1130240479556954795569547959A010FD6969595
S1130250879596958795969587959C01220F331FD0
S1130260880F991F880F991F880F991F820F931F5A
S11302709A01281B390BC901222389F0805D37D3E9
S113028080E38C0D34D380E38E0D31D38CE22FD3F5
S113029080E3800F2CD38C2F805D29D30EC080E3A4
S11302A08C0D25D380E38E0D22D38CE220D380E302
S11302B0800F1DD38C2F805D1AD3DF91CF911F91B6
S11302C00F91FF90EF90DF90CF900895F999FECFB2
S11302D092BD81BD60BDFA9AF99A0895F999FECF4D
S11302E092BD81BDF89A80B5089584B18F6384B9B5
S11302F08AB1806C8AB980E090E0F0DFD3C20895BF
S11303008AB18C628AB98BB18C628BB9089518BC9E
S113031084B5806284BD84B5836084BD85B5826004
S113032085BD0895F894E1E8F0E0808188608083D9
S11303308081846080838FE390E090938900809330
S11303408800EFE6F0E080818260808378940895ED
S1130350F894389A4098E8E6F0E0808182608083DF
S1130360ECE6F0E080818160808378940895ECE786
S1130370F0E080818064808380818F7D8083EAE7E0
S1130380F0E0808187608083808180688083089525
S1130390F8941092C5008FEC8093C400E0ECF0E078
S11303A0808182608083E2ECF0E0808186608083DB
S11303B0E1ECF0E0808180688083808188618083C3
S11303C0789408951F920F920FB60F9211248F9371
S11303D08091C6008093320180913201833621F0EE
S11303E080913201833429F481E0809331011092A9
S11303F032018F910F900FBE0F901F9018951F928E
S11304000F920FB60F9211242F933F934F935F9344
S11304106F937F938F939F93AF93BF93EF93FF93C8
S11304208091200190912101019690932101809364
S11304302001AED0FF91EF91BF91AF919F918F9129
S11304407F916F915F914F913F912F910F900FBECC
S11304500F901F9018951F920F920FB60F921124B0
S11304600F900FBE0F901F9018951F920F920FB60A
S11304700F9211248F93309B03C081E08093260157
S11304808F910F900FBE0F901F901895309B0AC04C
S1130490109230016091300180E090E017DF80918C
S11304A0300100C20895309B29C080E090E016DF3F
S11304B080933001809130018A3070F48091300152
S11304C08F5F809330016091300180E090E0FEDE28
S11304D080913001E7D10AC010923001609130015F
S11304E080E090E0F3DE80913001DCD121E046E44D
S11304F052E061E088EB9BE06AC2089541E066E463
S113050072E081E087C20895BF92CF92DF92EF92AA
S1130510FF920F931F93CF93DF93CFE3D1E00AE3CE
S113052011E00F2EF5E8CF2EF1E0DF2EF02DBB24E5
S1130530B39488818823E1F0D8018D919C9111971F
S1130540009721F001978D939C9312C0D8011396C4
S1130550ED91FC911497309719F00995188208C011
S1130560FE013397E081F0E0EA5DFE4FB08218822D
S11305702796095F1F4FCC15DD05D9F6DF91CF9182
S11305801F910F91FF90EF90DF90CF90BF9008954F
S11305908F929F92AF92BF92CF92DF92EF92FF928F
S11305A08091200190912101883E934071F4109232
S11305B021011092200180913301833020F48F5F58
S11305C08093330102C010923301809120019091F5
S11305D0210183709927892B79F1809120019091D1
S11305E02101049748F180913301813039F488B5B1
S11305F08F3FA9F088B58F5F88BD11C0833039F46F
S113060088B5882361F088B5815088BD08C08230E0
S113061019F48FEF88BD03C0811101C018BC80910B
S11306202601882349F021E043E552E061E08EE1B0
S113063090E0CDD1109226014091200150912101EA
S11306409A01ADECBCEC12D4969587959695879556
S11306509C01220F331F220F331F820F931F481751
S1130660590709F04CC08091200190912101059710
S113067008F445C0809134018931F8F481E019DD32
S1130680BC0180E090E0D9D29B01AC0160912201D1
S1130690709123018091240190912501D2D160931E
S11306A0220170932301809324019093250180916A
S11306B034018F5F8093340122C020E030E040ECAD
S11306C051E4609122017091230180912401909161
S11306D025011FD286D2CB010DDD609300017093FA
S11306E00101809302019093030110922201109260
S11306F0230110922401109225011092340140919B
S11307002001509121019A01ADECBCECAFD3969538
S1130710879596958795969587959C01220F331F0B
S1130720880F991F880F991F880F991F820F931F95
S11307304817590769F580912001909121010A9782
S113074038F183E0B6DC4996DFDC6B017C01609311
S1130750350170933601809337019093380180906E
S1130760000190900101A0900201B0900301A50145
S11307709401CBD188231CF482E0DBD009C0A5010D
S11307809401C701B6010BD3181614F482E0DDD02E
S113079040912001509121019A01ADECBCEC66D34B
S11307A0929582958F7089279F70892764E1689F4D
S11307B09001699F300D11244217530709F4D2D0D8
S11307C040912001509121019A0136952795369543
S11307D02795ABE7B4E14AD39695879564E6689F7D
S11307E09001699F300D11244217530709F049C045
S11307F080912001909121018536910508F441C032
S113080080913101882309F43CC06091000170910A
S11308100101809102019091030180DC80E267D0A4
S113082060913501709136018091370190913801C2
S113083075DC80E25CD0ABD08093390180913901C2
S1130840813421F080913901813621F484E091E0F2
S113085056D00FC080913901833541F08091390120
S1130860833721F080913901811103C08CE091E03C
S113087046D080E090E032DD805D39D083E191E0C4
S11308803ED042DEFF90EF90DF90CF90BF90AF90CC
S11308909F908F90089585B1807C85B98BB18F73BB
S11308A08BB90895CF93C82FF6DFCA30A8F481E03E
S11308B0C73009F480E0882331F081E0C23008F4C5
S11308C080E081115E9A95B1EC2FF0E0EA5EFE4F74
S11308D08081892B85B909C085B18F6385B9109250
S11308E0300160E080E090E0F1DCCF910895E0EC2D
S11308F0F0E0908195FFFDCF8093C60008950F939B
S11309001F93CF93DF93FC0101900020E9F7319707
S11309101E2F181B49F0082FC02FD92F8991E7DF0C
S11309208C2F801B8117D0F3DF91CF911F910F91F2
S113093008959BB121E030E002C0220F331F8A9555
S1130940E2F7209592239BB908954BB121E030E062
S1130950B90102C0660F771F8A95E2F7CB01842B99
S11309608BB9089580913201813421F08091320154
S1130970813611F483E0DDDF80913201833521F08B
S113098080913201833711F483E0DFCF08958091A1
S113099032010895CF93DF93AAE3B1E0E0E4F1E0FC
S11309A08DE891E011961C921E92EF012497188213
S11309B014961C921E9213972396188210821796EF
S11309C03796E817F90771F7DF91CF910895CF9320
S11309D0DF93AFE3B1E0E0E0F0E0EF013C913323DB
S11309E019F031961796F9CFEE0FFF1FEE0FFF1F88
S11309F0EE0FFF1FEC1BFD0BE65CFE4F31E0358371
S1130A0026839183808362835483438381E0DF91CF
S1130A10CF910895ECE3F1E0AFE3B1E029E831E0F0
S1130A209081981306C0418152814617570709F4F3
S1130A301C9237961796E217F30791F78BE0089507
S1130A405058BB27AA270ED070C161D130F066D1AF
S1130A5020F031F49F3F11F41EF456C10EF4E095DA
S1130A60E7FB4CC1E92F72D180F3BA176207730711
S1130A708407950718F071F49EF58AC10EF4E09589
S1130A800B2EBA2FA02D0B01B90190010C01CA0144
S1130A90A0011124FF27591B99F0593F50F4503EEF
S1130AA068F11A16F040A22F232F342F4427585FE1
S1130AB0F3CF469537952795A795F0405395C9F7F9
S1130AC07EF41F16BA0B620B730B840BBAF09150B1
S1130AD0A1F0FF0FBB1F661F771F881FC2F70EC050
S1130AE0BA0F621F731F841F48F487957795679523
S1130AF0B795F7959E3F08F0B3CF9395880F08F00C
S1130B009927EE0F979587950895D4D008F481E03E
S1130B1008950CD00AC102D140F0F9D030F021F48C
S1130B205F3F19F0EBC0511134C1EEC00FD198F3FF
S1130B309923C9F35523B1F3951B550BBB27AA275A
S1130B4062177307840738F09F5F5F4F220F331FCC
S1130B50441FAA1FA9F333D00E2E3AF0E0E830D098
S1130B6091505040E695001CCAF729D0FE2F27D09B
S1130B70660F771F881FBB1F261737074807AB0769
S1130B80B0E809F0BB0B802DBF01FF2793585F4FDE
S1130B902AF09E3F510568F0B1C0FBC05F3FECF303
S1130BA0983EDCF3869577956795B795F7959F5FA3
S1130BB0C9F7880F911D9695879597F90895E1E0F7
S1130BC0660F771F881FBB1F621773078407BA0756
S1130BD020F0621B730B840BBA0BEE1F88F7E095B1
S1130BE00895BCD088F09F5790F0B92F9927B7513A
S1130BF0A0F0D1F0660F771F881F991F1AF0BA95DD
S1130C00C9F712C0B13081F0C3D0B1E00895C0C0BB
S1130C10672F782F8827B85F39F0B93FCCF38695D2
S1130C2077956795B395D9F73EF49095809570952F
S1130C3061957F4F8F4F9F4F0895E89409C097FBAC
S1130C403EF490958095709561957F4F8F4F9F4F9F
S1130C509923A9F0F92F96E9BB279395F6958795E3
S1130C6077956795B795F111F8CFFAF4BB0F11F4A6
S1130C7060FF1BC06F5F7F4F8F4F9F4F16C088234D
S1130C8011F096E911C0772321F09EE8872F762F83
S1130C9005C0662371F096E8862F70E060E02AF0C4
S1130CA09A95660F771F881FDAF7880F96958795B0
S1130CB097F90895990F0008550FAA0BE0E8FEEF85
S1130CC016161706E807F907C0F012161306E4070C
S1130CD0F50798F0621B730B840B950B39F40A2605
S1130CE061F0232B242B252B21F408950A2609F4E3
S1130CF0A140A6958FEF811D811D089597F99F67E7
S1130D0080E870E060E008959FEF80EC089500248F
S1130D100A941616170618060906089500240A945C
S1130D2012161306140605060895092E0394000CE2
S1130D3011F4882352F0BB0F40F4BF2B11F460FF71
S1130D4004C06F5F7F4F8F4F9F4F089557FD90589A
S1130D50440F551F59F05F3F71F04795880F97FB7B
S1130D60991F61F09F3F79F0879508951216130635
S1130D701406551FF2CF4695F1DF08C01616170664
S1130D801806991FF1CF8695710561050894089599
S1130D90E894BB2766277727CB0197F908958ADF64
S1130DA008F48FEF08950BD0C0CFB1DF28F0B6DF81
S1130DB018F0952309F0A2CFA7CF1124EACFC6DFFC
S1130DC0A0F3959FD1F3950F50E0551F629FF0015A
S1130DD0729FBB27F00DB11D639FAA27F00DB11DB3
S1130DE0AA1F649F6627B00DA11D661F829F22273C
S1130DF0B00DA11D621F739FB00DA11D621F839FC3
S1130E00A00D611D221F749F3327A00D611D231F98
S1130E10849F600D211D822F762F6A2F11249F57E6
S1130E2050408AF0E1F088234AF0EE0FFF1FBB1F09
S1130E30661F771F881F91505040A9F79E3F5105A8
S1130E4070F05CCFA6CF5F3FECF3983EDCF3869561
S1130E5077956795B795F795E7959F5FC1F7FE2B53
S1130E60880F911D9695879597F90895A29FB001D3
S1130E70B39FC001A39F700D811D1124911DB29FCA
S1110E80700D811D1124911D0895F894FFCF6B
S1130E8E00007041417072696E7320005374696E74
S1130E9E7320000D0A003F061B0F262D3D073F2F22
S9030000FC
