S00B00005053312E7372656345
S11300000C9434000C9451000C9451000C94510045
S11300100C9424020C9451000C9451000C94510043
S11300200C9451000C9451000C9451000C94ED016B
S11300300C9451000C9451000C941A020C9451002D
S11300400C9451000C9451000C94DD010C9451005B
S11300500C9451000C9451000C9451000C945100D8
S11300600C9451000C94510011241FBECFEFD8E022
S1130070DEBFCDBF11E0A0E0B1E0EAE0FDE002C0E8
S113008005900D92AA31B107D9F721E0AAE1B1E0B8
S113009001C01D92AE36B207E1F70E9453000C94E2
S11300A083060C9400000E9462040E946E010E9468
S11300B0A3010E947B010E94B2010E94C3010E941D
S11300C082010E948D01FFCF813049F4ECE7F0E01A
S11300D080818D7F808380818160808307C08330AD
S11300E029F4ECE7F0E0808183608083EAE7F0E0C4
S11300F0808180648083808186FDFDCF809178003B
S11301002091790090E0922B089528E833E1AC0126
S1130110429FC001439F900D529F900D11246FEF99
S113012073E00E941F06CB010895CF92DF92EF92F5
S1130130FF920F931F93CF93DF939C01A0E5B3EC41
S11301400E9452062FEF33E040E050E00E94330655
S113015069017A01ADECBCEC0E9452069695879534
S113016096958795969587959C01220F331F880F46
S1130170991F880F991F880F991F820F931FE601FB
S1130180C81BD90B96010E945206AC01569547959F
S113019056954795569547959A010E94520696950D
S11301A0879596958795969587959C01220F331F81
S11301B0880F991F880F991F880F991F820F931F0B
S11301C08A01081B190B9A010E945206AC0156952C
S11301D0479556954795569547959A010E9452061C
S11301E09695879596958795969587959C01220F68
S11301F0331F880F991F880F991F880F991F820F2B
S1130200931F7A01E81AF90A9A010E945206AC0176
S11302105695479556954795569547959A010E9448
S113022052069C0136952795369527953695279540
S1130230C901880F991F220F331F220F331F220F6A
S1130240331F280F391FCA01821B930B8823C9F05F
S1130250805D0E940B0480E38E0D0E940B048CE2EF
S11302600E940B0480E3800F0E940B048C2F805D9E
S11302700E940B048DE00E940B048AE00E940B0490
S113028015C080E38E0D0E940B048CE20E940B04C7
S113029080E3800F0E940B048C2F805D0E940B046E
S11302A08DE00E940B048AE00E940B04DF91CF9141
S11302B01F910F91FF90EF90DF90CF900895F999DF
S11302C0FECF92BD81BD60BDFA9AF99A0895F9995D
S11302D0FECF92BD81BDF89A80B5089584B18F6335
S11302E084B98AB1806C8AB980E090E00E94670189
S11302F00E94E40308958AB18C628AB98BB18C623E
S11303008BB9089518BC84B5806284BD84B58360BC
S113031084BD85B5826085BD0895F894E1E8F0E078
S11303208081886080838081846080838FE390E013
S11303309093890080938800EFE6F0E080818260EA
S1130340808378940895F894389A4098E8E6F0E029
S1130350808182608083ECE6F0E08081816080832C
S113036078940895ECE7F0E0808180648083808154
S11303708F7D8083EAE7F0E08081876080838081DD
S1130380806880830895F8941092C5008FEC809360
S1130390C400E0ECF0E0808182608083E2ECF0E075
S11303A0808186608083E1ECF0E0808180688083D6
S11303B0808188618083789408951F920F920FB68C
S11303C00F9211248F938091C60080932D018F91F9
S11303D00F900FBE0F901F9018951F920F920FB69B
S11303E00F9211242F933F934F935F936F937F93B7
S11303F08F939F93AF93BF93EF93FF9380911A01D1
S113040090911B01019690931B0180931A010E9405
S1130410A202FF91EF91BF91AF919F918F917F9134
S11304206F915F914F913F912F910F900FBE0F905D
S11304301F9018951F920F920FB60F9211240F90D0
S11304400FBE0F901F9018951F920F920FB60F9228
S113045011248F93309B03C081E0809322018F91FC
S11304600F900FBE0F901F901895309B26C080E010
S113047090E00E94670180932C0180912C018A30C6
S113048080F480912C018F5F80932C0160912C016A
S113049080E090E00E945F0180912C010E94E403BF
S11304A0089510922C0160912C0180E090E00E944C
S11304B05F0180912C010E94E4030895BF92CF92C2
S11304C0DF92EF92FF920F931F93CF93DF93C7E3D3
S11304D0D1E002E311E00F2EF3E7CF2EF1E0DF2E9F
S11304E0F02DBB24B39488818823E1F0D8018D9149
S11304F09C911197009721F001978D939C9312C0C2
S1130500D8011396ED91FC911497309719F0099541
S1130510188208C0FE013397E081F0E0EE5DFE4FE3
S1130520B082188226960A5F1F4FCC15DD05D9F6D6
S1130530DF91CF911F910F91FF90EF90DF90CF90BB
S1130540BF90089580911A0190911B01883E9340B9
S113055011F510921B0110921A0180912E01833023
S113056020F48F5F80932E0102C010922E0180E050
S113057091E00E94130480911C0190911D010E943E
S1130580950088E091E00E941304809130019091DD
S113059031010E94950080911A0190911B01837092
S11305A09927892B81F180911A0190911B0104975D
S11305B050F180912E01813039F488B58F3FA9F034
S11305C088B58F5F88BD11C0833039F488B588231E
S11305D061F088B5815088BD08C0823019F48FEF6E
S11305E088BD03C0811101C018BC809122018823F9
S11305F051F021E045E352E061E08EE190E00E9499
S11306007A041092220140911A0150911B019A011F
S1130610ADECBCEC0E94520696958795969587950D
S11306209C01220F331F220F331F820F931F481781
S1130630590709F04BC080911A0190911B0105974D
S113064008F444C080912F01893110F581E00E94A3
S11306506400BC0180E090E00E9491059B01AC0124
S113066060911E0170911F018091200190912101E0
S11306700E94990460931E0170931F0180932001CE
S11306809093210180912F018F5F80932F011EC0D1
S113069020E030E048EC51E460911E0170911F01AC
S11306A080912001909121010E94FD040E94650522
S11306B070931D0160931C0110921E0110921F0182
S11306C0109220011092210110922F0140911A01E1
S11306D050911B019A01ADECBCEC0E945206969518
S11306E0879596958795969587959C01220F331F3C
S11306F0880F991F880F991F880F991F820F931FC6
S11307004817590709F580911A0190911B010A971E
S1130710D8F083E00E9464000E948500C296909302
S113072031018093300120911C0130911D01821709
S1130730930720F482E00E942E0406C0281739078C
S113074018F482E00E943A0440911A0150911B016E
S11307509A01ADECBCEC0E945206929582958F7082
S113076089279F70892764E1689F9001699F300DF4
S113077011244217530711F40E94470440911A01AF
S113078050911B019A013695279536952795ABE72D
S1130790B4E10E9452069695879564E6689F90019D
S11307A0699F300D11244217530721F480911A01D7
S11307B090911B010E945E02089585B1807C85B9E9
S11307C08BB18F738BB90895CF93C82F0E94DD032B
S11307D0CA30A8F481E0C73009F480E0882331F0FE
S11307E081E0C23008F480E081115E9A95B1EC2F6B
S11307F0F0E0E05FFE4F8081892B85B90AC085B1A6
S11308008F6385B910922C0160E080E090E00E9433
S11308105F01CF910895E0ECF0E0908195FFFDCF6A
S11308208093C60008950F931F93CF93DF93FC0129
S113083001900020E9F731971E2F181B51F0082F63
S1130840C02FD92F89910E940B048C2F801B8117F4
S1130850C8F3DF91CF911F910F9108959BB121E0CF
S113086030E002C0220F331F8A95E2F720959223CD
S11308709BB908954BB121E030E0B90102C0660F85
S1130880771F8A95E2F7CB01842B8BB90895809169
S11308902D01813421F080912D01813629F483E0EA
S11308A00E942E0410922D0180912D01833521F098
S11308B080912D01833729F483E00E943A04109239
S11308C02D010895CF93DF93E4E3F1E0A7E3B1E0D2
S11308D086E791E0EF012297198218821082128232
S11308E011821C9236961696E817F90799F7DF914C
S11308F0CF910895A7E3B1E0E0E0F0E09F017C919F
S1130900772319F031961696F9CFDF01AA0FBB1F92
S1130910FD01E20FF31FEE0FFF1FEE5CFE4F71E0CF
S113092075839183808362835483438381E0089534
S11309305058BB27AA270ED048C139D130F03ED138
S113094020F031F49F3F11F41EF42EC10EF4E09513
S1130950E7FB24C1E92F4AD180F3BA176207730772
S11309608407950718F071F49EF562C10EF4E095C2
S11309700B2EBA2FA02D0B01B90190010C01CA0155
S1130980A0011124FF27591B99F0593F50F4503E00
S113099068F11A16F040A22F232F342F4427585FF2
S11309A0F3CF469537952795A795F0405395C9F70A
S11309B07EF41F16BA0B620B730B840BBAF09150C2
S11309C0A1F0FF0FBB1F661F771F881FC2F70EC061
S11309D0BA0F621F731F841F48F487957795679534
S11309E0B795F7959E3F08F0B3CF9395880F08F01D
S11309F09927EE0F9795879508950CD0E6C0DED021
S1130A0040F0D5D030F021F45F3F19F0C7C0511148
S1130A1010C1CAC0EBD098F39923C9F35523B1F39D
S1130A20951B550BBB27AA2762177307840738F059
S1130A309F5F5F4F220F331F441FAA1FA9F333D0B8
S1130A400E2E3AF0E0E830D091505040E695001C6C
S1130A50CAF729D0FE2F27D0660F771F881FBB1F28
S1130A60261737074807AB07B0E809F0BB0B802D02
S1130A70BF01FF2793585F4F2AF09E3F510568F04E
S1130A808DC0D7C05F3FECF3983EDCF38695779535
S1130A906795B795F7959F5FC9F7880F911D969550
S1130AA0879597F90895E1E0660F771F881FBB1FAC
S1130AB0621773078407BA0720F0621B730B840B59
S1130AC0BA0BEE1F88F7E095089598D088F09F57E9
S1130AD090F0B92F9927B751A0F0D1F0660F771F86
S1130AE0881F991F1AF0BA95C9F712C0B13081F066
S1130AF09FD0B1E008959CC0672F782F8827B85FF6
S1130B0039F0B93FCCF3869577956795B395D9F7C6
S1130B103EF490958095709561957F4F8F4F9F4FD0
S1130B200895E89409C097FB3EF4909580957095DC
S1130B3061957F4F8F4F9F4F9923A9F0F92F96E925
S1130B40BB279395F695879577956795B795F1119A
S1130B50F8CFFAF4BB0F11F460FF1BC06F5F7F4F37
S1130B608F4F9F4F16C0882311F096E911C0772349
S1130B7021F09EE8872F762F05C0662371F096E852
S1130B80862F70E060E02AF09A95660F771F881F21
S1130B90DAF7880F9695879597F9089597F99F67DF
S1130BA080E870E060E008959FEF80EC08950024F1
S1130BB00A941616170618060906089500240A94BE
S1130BC012161306140605060895092E0394000C44
S1130BD011F4882352F0BB0F40F4BF2B11F460FFD3
S1130BE004C06F5F7F4F8F4F9F4F089557FD9058FC
S1130BF0440F551F59F05F3F71F04795880F97FBDD
S1130C00991F61F09F3F79F0879508951216130696
S1130C101406551FF2CF4695F1DF08C016161706C5
S1130C201806991FF1CF86957105610508940895FA
S1130C30E894BB2766277727CB0197F90895AA1B69
S1130C40BB1B51E107C0AA1FBB1FA617B70710F0B3
S1130C50A61BB70B881F991F5A95A9F780959095E5
S1130C60BC01CD010895052E97FB1EF400940E944B
S1130C704A0657FD07D00E94610607FC03D04EF4D4
S1130C800C944A0650954095309521953F4F4F4F0F
S1130C905F4F089590958095709561957F4F8F4F24
S1130CA09F4F0895A29FB001B39FC001A39F700DF1
S1130CB0811D1124911DB29F700D811D1124911D60
S1130CC00895A1E21A2EAA1BBB1BFD010DC0AA1F89
S1130CD0BB1FEE1FFF1FA217B307E407F50720F0A1
S1130CE0A21BB30BE40BF50B661F771F881F991F1C
S1130CF01A9469F760957095809590959B01AC0165
S10D0D00BD01CF010895F894FFCF60
S1130D0A56414C55453A200050524543533A200027
S10D0D1A3F061B0F262D3D073F2F57
S9030000FC
