:100000000C9434000C9451000C9451000C94510049
:100010000C94B1000C9451000C9451000C945100BC
:100020000C9451000C9451000C9451000C947200EB
:100030000C9451000C9451000C9481000C945100CC
:100040000C9451000C9451000C9462000C945100DB
:100050000C9451000C9451000C9451000C945100DC
:100060000C9451000C94510011241FBECFEFD8E026
:10007000DEBFCDBF11E0A0E0B1E0EAEAF3E002C0EC
:1000800005900D92AA30B107D9F721E0AAE0B1E0BE
:1000900001C01D92AD30B207E1F70E9453000C94ED
:1000A000D3010C9400000E9413010E943B010E94A6
:1000B00020010E944A0184E294EF0E9427010E94DD
:1000C000B801FDCF1F920F920FB60F9211248F939C
:1000D0008091C60080930C018F910F900FBE0F90FE
:1000E0001F9018951F920F920FB60F9211248F93A5
:1000F0008BB180588BB98F910F900FBE0F901F90CE
:1001000018951F920F920FB60F9211242F933F93C1
:100110004F935F936F937F938F939F93AF93BF930F
:10012000EF93FF9380910A018F5F80930A01809182
:100130000A01893128F085E00E94AB0110920A0182
:10014000FF91EF91BF91AF919F918F917F916F91AF
:100150005F914F913F912F910F900FBE0F901F9085
:1001600018951F920F920FB60F9211242F933F9361
:100170004F935F936F937F938F939F93AF93BF93AF
:10018000EF93FF932FEF81EE94E021508040904059
:10019000E1F700C00000309B26C080E090E00E94A4
:1001A0000C0180930B0180910B018A3080F48091C7
:1001B0000B018F5F80930B0160910B0180E090E059
:1001C0000E94040180910B010E946B010CC01092EF
:1001D0000B0160910B0180E090E00E94040180918E
:1001E0000B010E946B01FF91EF91BF91AF919F9125
:1001F0008F917F916F915F914F913F912F910F90D0
:100200000FBE0F901F901895F999FECF92BD81BD3A
:1002100060BDFA9AF99A0895F999FECF92BD81BD11
:10022000F89A80B5089584B18F6384B98AB1806CDF
:100230008AB980E090E00E940C010E946B01089551
:100240008AB18C628AB98BB18C628BB90895F894AB
:10025000E1E8F0E020812860208320812460208371
:100260009093890080938800EFE6F0E080818260BF
:10027000808378940895F894389A4098E8E6F0E0FE
:10028000808182608083ECE6F0E080818160808301
:1002900078940895F8941092C5008FEC8093C40070
:1002A000E0ECF0E0808182608083E2ECF0E080812D
:1002B00086608083E1ECF0E08081806880838081CB
:1002C000886180837894089585B1807C85B98BB1ED
:1002D0008F738BB90895CF93C82F0E946401CA30E1
:1002E000A8F481E0C73009F480E0882331F081E090
:1002F000C23008F480E081115E9A95B1EC2FF0E0F5
:10030000E050FF4F8081892B85B90AC085B18F638A
:1003100085B910920B0160E080E090E00E9404013A
:10032000CF9108959BB121E030E002C0220F331F2E
:100330008A95E2F7209592239BB908954BB121E06D
:1003400030E0B90102C0660F771F8A95E2F7CB0152
:10035000842B8BB908954BB121E030E0B90102C084
:10036000660F771F8A95E2F7CB0184278BB9089532
:1003700080910C01813421F080910C01813629F4A7
:1003800082E00E94920110920C0180910C01833551
:1003900021F080910C01833729F482E00E949E01B4
:0A03A00010920C010895F894FFCFAD
:0A03AA003F061B0F262D3D073F2FD5
:00000001FF
