:100000000C9434000C9451000C9451000C94510049
:100010000C94AD000C9451000C9451000C945100C0
:100020000C9451000C9451000C9451000C946E00EF
:100030000C9451000C9451000C947D000C945100D0
:100040000C9451000C9451000C9451000C945100EC
:100050000C9451000C9451000C9451000C945100DC
:100060000C9451000C94510011241FBECFEFD8E026
:10007000DEBFCDBF11E0A0E0B1E0EEE6F3E002C0EC
:1000800005900D92AA30B107D9F721E0AAE0B1E0BE
:1000900001C01D92AC30B207E1F70E9453000C94EE
:1000A000B5010C9400000E940F010E9437010E94CC
:1000B0001C010E94460184E294EF0E9423010E94E9
:1000C00087018F7D813421F482E00E948F01F7CF78
:1000D0008335A9F782E00E949B01F1CF1F920F9216
:1000E0000FB60F9211248F938BB180588BB98F91DB
:1000F0000F900FBE0F901F9018951F920F920FB682
:100100000F9211242F933F934F935F936F937F939D
:100110008F939F93AF93BF93EF93FF9380910A01C7
:100120008F5F80930A0180910A01893128F085E070
:100130000E94A80110920A01FF91EF91BF91AF9127
:100140009F918F917F916F915F914F913F912F91EF
:100150000F900FBE0F901F9018951F920F920FB621
:100160000F9211242F933F934F935F936F937F933D
:100170008F939F93AF93BF93EF93FF932FEF87EEF0
:1001800093E0215080409040E1F700C00000309B98
:1001900026C080E090E00E94080180930B018091CE
:1001A0000B018A3080F480910B018F5F80930B01EB
:1001B00060910B0180E090E00E94000180910B01B2
:1001C0000E9460010CC010920B0160910B0180E055
:1001D00090E00E94000180910B010E946001FF915C
:1001E000EF91BF91AF919F918F917F916F915F91AF
:1001F0004F913F912F910F900FBE0F901F90189528
:10020000F999FECF92BD81BD60BDFA9AF99A089521
:10021000F999FECF92BD81BDF89A80B5089584B159
:100220008F6384B98AB1806C8AB980E090E00E94C3
:1002300008010E94600108958AB18C628AB98BB16D
:100240008C628BB90895F894E1E8F0E02081286091
:1002500020832081246020839093890080938800EC
:10026000EFE6F0E080818260808378940895F894CE
:10027000389A4098E8E6F0E0808182608083ECE67E
:10028000F0E080818160808378940895F8941092E2
:10029000C5008FEC8093C400E0ECF0E080818260C8
:1002A000808386E08093C20088E18093C1007894C7
:1002B000089585B1807C85B98BB18F738BB9089512
:1002C000CF93C82F0E945901CA30A8F481E0C730EB
:1002D00009F480E0882331F081E0C23008F480E046
:1002E00081115E9A95B1EC2FF0E0E050FF4F8081D4
:1002F000892B85B90AC085B18F6385B910920B012E
:1003000060E080E090E00E940001CF910895E0EC71
:10031000F0E080818823ECF78091C60008959BB1BE
:1003200021E030E002C0220F331F8A95E2F72095CA
:1003300092239BB908954BB121E030E0B90102C08E
:10034000660F771F8A95E2F7CB01842B8BB908954E
:100350004BB121E030E0B90102C0660F771F8A95EA
:0E036000E2F7CB0184278BB90895F894FFCF04
:0A036E003F061B0F262D3D073F2F11
:00000001FF
