:100000000C9434000C9451000C9451000C94810019
:100010000C9451000C9451000C9451000C9451001C
:100020000C9451000C9451000C9451000C946F00EE
:100030000C9451000C9451000C9451000C945100FC
:100040000C9451000C9451000C9451000C945100EC
:100050000C9451000C9451000C9451000C945100DC
:100060000C9451000C94510011241FBECFEFD8E026
:10007000DEBFCDBF11E0A0E0B1E0E8EEF1E002C0EC
:1000800005900D92AA30B107D9F721E0AAE0B1E0BE
:1000900001C01D92AA30B207E1F70E9453000C94F0
:1000A000F2000C9400000E94A0000E94C4000E9474
:1000B000A7000E94AE00C0E0D0E001C0CD2F2FEF1E
:1000C00089E698E1215080409040E1F700C00000AF
:1000D0008C2F0E94D800CF5FCA3080F7F0CF1F92DC
:1000E0000F920FB60F9211248F939F939BB180E2D2
:1000F00089278BB99F918F910F900FBE0F901F9002
:1001000018951F920F920FB60F9211242F938F9371
:100110009F93319B04C09BB188E089278BB92FEF57
:1001200083EF91E0215080409040E1F700C0000053
:100130009F918F912F910F900FBE0F901F90189548
:1001400084B18F6384B98AB1806C8AB908958AB109
:100150008C628AB98BB18C628BB90895F894E1E80E
:10016000F0E080818860808380818460808384E285
:1001700094EF9093890080938800EFE6F0E080810F
:100180008260808378940895F894E8E6F0E08081B6
:1001900082608083ECE6F0E08081826080837894E6
:1001A000089585B1807C85B98BB18F738BB9089523
:1001B000CF93C82F0E94D10081E0C73009F480E0BE
:1001C000882331F081E0C23008F480E081115E9A2A
:1001D00095B1EC2FF0E0E050FF4F8081892B85B97D
:0801E000CF910895F894FFCFC0
:0A01E8003F061B0F262D3D073F2F99
:00000001FF
