S01200004D696C6573746F6E65312E7372656331
S11300000C9456000C9473000C9473000C947300BD
S11300100C9473000C9473000C9473000C94730090
S11300200C9473000C9473000C9473000C94730080
S11300300C9473000C9473000C9473000C94730070
S11300400C9473000C9473000C9473000C94730060
S11300500C9473000C9473000C9473000C94730050
S11300600C9473000C9473000C9473000C94730040
S11300700C9473000C9473000C9473000C94730030
S11300800C9473000C9473000C9473000C94730020
S11300900C9473000C9473000C9473000C94730010
S11300A00C9473000C9473000C94730011241FBE01
S11300B0CFEFDAE0DEBFCDBF11E0A0E0B1E0ECEAC3
S11300C0F1E002C005900D92A230B107D9F721E00A
S11300D0A2E0B1E001C01D92A230B207E1F70E9494
S11300E075000C94D4000C9400008AB1806C8AB919
S11300F025985E9A8FEC0E94C400C0E011E0D0E025
S11301001D991AC02FEF86E791E02150804090405E
S1130110E1F700C000001D9BFECFCC2339F08FEC2B
S11301200E94C4005E9A5F98CD2F06C080E10E94B1
S1130130C4005F9A5E98C12F80E091E00E94A900FC
S1130140DFCFE8ECF0E0908195FFFDCF8093CE0007
S113015008950F931F93CF93DF93FC010190002028
S1130160E9F731971E2F181B51F0082FC02FD92FF4
S113017089910E94A1008C2F801B8117C8F3DF9105
S1130180CF911F910F9108951092CD008093CC00D0
S1130190E8ECF0E080818260808388E18093C9008C
S10F01A086E08093CA000895F894FFCF15
S10501AC41000C
S9030000FC
