:1000000055C000006EC000006CC000006AC0000057
:1000100068C0000066C0000064C0000062C000004C
:1000200060C000005EC000005CC000005AC000005C
:1000300058C0000056C0000054C0000052C000006C
:1000400050C000004EC000004CC000004AC000007C
:1000500048C0000046C0000044C0000042C000008C
:1000600040C000003EC000003CC000003AC000009C
:1000700038C0000036C0000034C0000032C00000AC
:1000800030C000002EC000002CC000002AC00000BC
:1000900028C0000026C0000024C0000022C00000CC
:1000A00020C000001EC000001CC0000011241FBEA4
:1000B000CFEFDAE0DEBFCDBF11E0A0E0B1E0E6EFC8
:1000C000F1E002C005900D92A033B107D9F721E00D
:1000D000A0E3B1E001C01D92A033B207E1F76CD0FC
:1000E00088C08ECF84B1806984B93F9A879A84B1E1
:1000F000806684B9E0E8F0E08081806A8083808156
:1001000082608083E1E8F0E0808188618083808183
:10011000816080838FEF90E09093870080938600CA
:1001200080E091E00AD03BC00895E8ECF0E09081D7
:1001300095FFFDCF8093CE000895EF92FF920F932D
:100140001F93CF93DF938C017C01C0E0D0E005C00A
:10015000F70181917F01E9DF2196F80101900020EC
:10016000E9F73197E01BF10BCE17DF0788F3DF913A
:10017000CF911F910F91FF90EF9008951092CD00B5
:1001800080E18093CC00E8ECF0E0808182608083A5
:1001900088E18093C90086E08093CA000895809129
:1001A000C800882344F4AEECB0E0E8ECF0E08C91B9
:1001B00080818823E4F30895F894E0DF93DF789456
:1001C0008FE191E0BADF2FEF83ED90E32150804083
:1001D0009040E1F700C0000087E291E0AEDF2FEF32
:1001E00083ED90E3215080409040E1F700C0000093
:0601F000E7CFF894FFCFF9
:1001F60050574D20696E697469616C697A617469DA
:100206006F6E2066696E6973686564210D0A004623
:10021600617461210D0A005370617465210D0A0035
:00000001FF
