:100000000C9456000C9473000C9473000C947300C1
:100010000C9473000C9473000C9473000C94730094
:100020000C9473000C9473000C9473000C94730084
:100030000C9473000C9473000C9473000C94730074
:100040000C9473000C9473000C9473000C94730064
:100050000C9473000C9473000C9473000C94730054
:100060000C9473000C9473000C9473000C94730044
:100070000C9473000C9475000C9473000C94730032
:100080000C9473000C9473000C9473000C94730024
:100090000C9473000C9473000C9473000C94730014
:1000A0000C9473000C9473000C94730011241FBE05
:1000B000CFEFDAE0DEBFCDBF11E0A0E0B1E0E6EFC8
:1000C000F2E002C005900D92A032B107D9F721E00D
:1000D000A0E2B1E001C01D92A032B207E1F70E9498
:1000E0001B010C9479010C9400001F920F920FB623
:1000F0000F9211240F900FBE0F901F901895CF9361
:10010000DF93813019F08230D1F037C0C0E08C2FFE
:100110000E944A018FED9EE20197F1F700C00000B6
:10012000CF5FCF3FA1F78C2F0E944A018FED9EE257
:100130000197F1F700C00000C150A9F741C0C0E02D
:10014000D0E0CE010E9450018FED9EE20197F1F7C1
:1001500000C000002196CF3FD10599F7CFEFD0E046
:10016000CE010E9450018FED9EE20197F1F700C091
:10017000000021972097A1F723C0C0E0D0E0CE0176
:100180000E9450018C2F0E944A018FE39CE9019745
:10019000F1F700C000002196CF3FD10581F7CFEFE6
:1001A000D0E0CE010E9450018C2F0E944A018FE3C3
:1001B0009CE90197F1F700C000002197209789F78B
:1001C000DF91CF910895CF93CAE08FEF0E944A014B
:1001D0002FEF87EE93E0215080409040E1F700C080
:1001E00000008FEF90E00E9450012FEF89EF90E028
:1001F000215080409040E1F700C0000080E00E9464
:100200004A012FEF87EE93E0215080409040E1F7C4
:1002100000C0000080E090E00E9450012FEF89EFC5
:1002200090E0215080409040E1F700C00000C150B4
:1002300061F6CF910895259A0E94270181E00E94DE
:100240007F0082E00E947F000E94E300F7CF84B12C
:10025000806984B93F9A879A84B1806684B9E0E85E
:10026000F0E08081806A8083808182608083E1E821
:10027000F0E08081886180838081816080838FEF5E
:1002800090E0909387008093860080E091E00E9448
:100290005E01089590E0909389008093880008950E
:1002A00090E090938B0080938A000895E8ECF0E052
:1002B000908195FFFDCF8093CE0008950F931F93FB
:1002C000CF93DF93FC0101900020E9F731971E2FB7
:1002D000181B51F0082FC02FD92F89910E94560169
:1002E0008C2F801B8117C8F3DF91CF911F910F9145
:0602F0000895F894FFCF11
:1002F60050574D20696E697469616C697A617469D9
:100306006F6E2066696E6973686564210D0A000068
:00000001FF
